:03000000020B846C
:0C0B8400787FE4F6D8FD75813D020BCBB4
:0F0CD00074656D703A20252E336620430D0A009F
:020D0900C10A1D
:0A0CF700E4F5B4F5B3F592F591228F
:1000030075985075D7E875D6FF758E15D2ACD2AFFB
:0C001300C209E4900003F0900002F0220B
:100C7C0043BA8090FE8074E0F090FE82E4F0C20BE8
:010C8C002245
:100C510043BA8090FEA3740FF053D1FDE4F5D5752E
:090C6100D41F43AF2043D1082247
:03002300020026B2
:10002600C0E0C083C082C0D075D000C004C005C087
:1000360006C007309904C299C209309839C298900F
:100046000003E0FF04F0EF3395E0FE741C2FF58209
:1000560074003EF583E599F0900003E0FFFD3395CB
:10006600E0FC741B2DF58274003CF583E0F599EFF6
:10007600540F900003F0D007D006D005D004D0D09E
:07008600D082D083D0E032EC
:0300C300020C37F5
:100C3700C0E0C083C08290FE82E030E606E054BF89
:0A0C4700F0C20BD082D083D0E0325F
:03009B0002001F41
:03001F00D20A32D0
:100AA500120CF7120003120C7C120C51D2AF200A63
:100AB50003020B7C12008D7F90120C8D120CDFE46B
:100AC500FF120C8D120CDF12008D7F91120C8D120E
:100AD5000CDF120C9E8F08120CAF120C9E8F0912A0
:100AE5000C6A120CEBE508FFE509900000CFF0A3B6
:100AF500EFF0900000E0FEA3E07805CEC313CE131F
:100B0500D8F9FF900000EEF0A3EFF0EE9000003072
:100B1500E21BE05403FEA3E0F4FFEEF4FEEF240134
:100B2500FFE43EFEC3E49FFDE49EFC8005E0FCA3DC
:100B3500E0FDE41201D1E4FBFAF9783E1200C6901B
:100B450000181205F47525FF75260C7527D0900041
:100B550018E0FCA3E0FDA3E0FEA3E0F52B8E2A8DB3
:100B6500298C287B017A0079041206927B017A0090
:0F0B7500790412009EC20A7F0A120CC0020AB352
:080D01002009FDD2098F99229F
:10009E008B228A238924AB22AA23A92412058E60DF
:1000AE00130524E5247002052314F912058EFF12A0
:0500BE000D0180E222AB
:0C008D00D20B90FE817481F0200BFD224C
:100C8D0090FE86EFF0D20B90FE817482F0200BFD6A
:010C9D002234
:0C0CDF00D20B90FE817483F0200BFD22EC
:100C9E00D20B90FE817484F0200BFD90FE87E0FF56
:010CAE002223
:100CAF0090FE82E4F0D20B90FE817485F0200BFD54
:010CBF002212
:100C6A0090FE827401F0D20B90FE817485F0200B05
:020C7A00FD2259
:0C0CEB00D20B90FE817486F0200BFD22DD
:0F0CC0007D517C04ED1D70011C144C70F7DFF1A9
:010CCF002202
:1000C600EC4D6011E8497017ED33EC3304600DE434
:1000D600FCFFFEFD22E933E8330470F802023F120A
:1000E600020A58046009E4CC24815006285009020B
:1000F6000249284003020246C0E0EB4A7044B98038
:1001060006D0E0FB020235EF4E701CBD8008EBFF07
:10011600EAFEE9FD80EBE98DF0A4FEE5F00201AF11
:10012600E9CDF9EAFEEBFFEF89F0A4FCE5F0CE8914
:10013600F0A42EFFE435F0CD89F0A42DFEE435F0D1
:100146008067EF4E7005BD80D780C3EF8BF0A4ACFF
:10015600F0EE8BF0A42CFCE435F0F8EF8AF0A42C3A
:10016600E5F038FCE433CB8DF0A42CFCE5F03BF84D
:10017600EE8AF0A42CFCE5F038F8E433CF89F0A43D
:100186002CFCE5F038CF3400CE89F0A42FFFE5F043
:100196003EFEE433C98DF0A42EFEE5F039CD8AF09B
:1001A600A42FFFE5F03EFEE43DFD33D0E0FB500713
:1001B6000BBB000F020249EC2CFCEF33FFEE33FEC3
:0601C600ED33FD020221F1
:1001CC0075F020800E75F010800575F0087D007EAE
:1001DC00007F003392D530D5031205E6EC33401086
:1001EC00EF33FFEE33FEED33FDEC33FCD5F0ED22B7
:0E01FC00E5F0247EA2D513CC92E7CDCEFF22F3
:10063600E5392425F8E6053922782230070278259F
:10064600E475F00112060002058E2000EB7F2ED223
:10065600008018EF540F2490D43440D4FF30040B9C
:10066600EF24BFB41A0050032461FFE53A60021577
:100676003A053DE53D7002053C30070D7822E475EC
:10068600F001120600EF0205D4020C107403D20723
:100696008003E4C207F5398B228A238924E4F53ADC
:1006A600F53CF53DE53A60077F2012067180F57549
:1006B6003BFFC201C200C202C203C205C206C20893
:1006C60012063FFF700D3007057F00120682AF3D10
:1006D600AE3C22B4255FC2D5C20412063FFF24D029
:1006E600B40A00501A75F00A783A30D50508B6FFF4
:1006F6000106C6A426F620D5047002D20380D924AA
:10070600CFB41A00EF5004C2E5D20402096FD20139
:1007160080C6D20080C0D20280BCD2D580BAD205B3
:1007260080B47F201206712002077401B53A00409A
:10073600F1120636FF1206710206AAD208D2068008
:1007460095120636FB120636FA120636F94A4B7031
:100756000679667A0A7BFF20022EE53A602A7E0039
:100766008E827583001205A760060EEE653B70F05B
:10077600C2D5EBC0E0EAC0E0E9C0E0EE1209CFD096
:10078600E0F9D0E0FAD0E0FB12058EFF60AAEBC0DC
:10079600E0EAC0E0E9C0E0120671D0E02401F9D039
:1007A600E03400FAD0E0FBE53B0460DCD53BD980C1
:1007B60087D20280A21209B260F7E53B70010412EB
:1007C6000254A93B600DE53B600914F53B120A593A
:1007D600EF60F3EA30E702F404C3995077EAF425B0
:1007E6003B0430E701E404F53B800D1209B260C119
:1007F600EA053B253B120254EA7838F630E701E475
:10080600253B04D53B04200501141209CFE4C0E0C2
:10081600120A597838E6601320E70714F6120659CB
:10082600802204F6D0E014C0E07F00120659E53BB2
:100836006007120650153B800B300503120650D098
:10084600E00206AAD0E00480C51209B260A0E53B2A
:10085600041202547838EAF6E53B200502600104EA
:0508660024041209CF7B
:10086B0074FF04C0E0120A59120659E53B20050239
:10087B006003120650D0E0B53BE87F451206637863
:10088B0038E67F2B30E7047F2DF404C0E0120671AD
:10089B00D0E075F00A84C0F012065AD0E012065A66
:1008AB000206AA791080027908C206C2088008D213
:1008BB00D5790A8004790AC2D5E53B047002F53B71
:1008CB00E4FAFDFEFF120636FC7B0820011312062C
:1008DB0036FD7B1030000A120636FE120636FF7B01
:1008EB0020EC3382D592D55013C3E43000069FFF22
:1008FB00E49EFEE42001039DFDE49CFCE4CBF8C2E6
:10090B0001EC700CCFCECDCCE824F8F870F3801747
:10091B00C3EF33FFEE33FEED33FDEC33FCEB33FB78
:10092B00994002FB0FD8E9EB300105F8D0E0C44841
:10093B00B201C0E00AEC4D4E4F78207B0070C2EA4A
:10094B00B53B0040BCC0E01209D1D0F0D0E0200193
:10095B0004C4C0E0C4B201C0F012065AD0F0D5F006
:10096B00EB0206AA12061007475308AE5807184C9D
:10097B0007144208B24F08BA4408BA49072D430876
:10098B00C05507F146084F4507BB470A8650071C61
:10099B002D07202E07432B0724230741200A6F2AFC
:1009AB0006DC480000073BE53BB4FF03753B061232
:1009BB000636FC120636FD120636FE120636FF7898
:1009CB0031020283790AA2D5200314300509B9102C
:1009DB00020404B9080104A2D52006025001042028
:1009EB0002689202B53A005034C0E07F2030031900
:1009FB007F30A20272067205500F120A28C202C281
:100A0B0006C205C2087F30800F300503E9C0E01233
:100A1B000671300503D0E0F9D0E0B53ACC300517BC
:100A2B007F30B9100C1206717F583004077F788025
:100A3B0003B908031206713002057F2D0206717F80
:100A4B00202008F87F2B2006F322920280CF7F0014
:100A5B00B4070050052431F8E6FF22286E756C6C44
:100A6B002900D2011206363001F8C201783A30D58E
:100A7B000108F60206DC2D504349581206362403B2
:100A8B00B405004001E4900A8193120662743A1295
:0A0A9B000662D203753A040208AEA9
:10020A00E9D2E7C933E833F892D5EDD2E7CD33EC3A
:07021A0033FC5002B2D522B3
:10022100EC30E7100FBF000C0EBE00080DBD00043E
:100231000BEB6014A2D5EB13FCED92E7FD2274FFEA
:10024100FCFDFEFF22E480F8A2D574FF13FC7D8043
:03025100E480EF57
:10025400F920E72824F950037907E4F42402FB1871
:10026400DBFDE624FB5014E9600DE4F618E604F621
:0F027400B40A08E4F6D9F57401F60A22C2D522BD
:10028300ED33EC3392D5FA602AB4FF33EDC2E77B4A
:10029300FF60067A0279A8E4227A0279B120D504B4
:1002A3007A0279AC224E614E002B494E46002D490D
:1002B3004E4600E47A08F608DAFC7B00740722E86D
:1002C300C0E0ECC0E0EDC0E0EEC0E0EFC0E0EA75F6
:1002D300F010A4CAABF075F04DA42BFBE435F0FC91
:1002E300EA2410FAEB34C5FBEC34D9FCEDC2E7FF8A
:1002F30075F056A4F42411C5F0F434C58FF0A42A84
:10030300E5F03BE43CF620E71412054ED0E0FFD0C5
:10031300E0FED0E0FDD0E0FC1204818014F404126E
:10032300054ED0E0FFD0E0FED0E0FDD0E0FC1200AF
:10033300C6D0E0F8E6FAEDD2E7CD33EC332482FB06
:10034300E4C3CF33CFCE33CECD33CD33DBF37B0713
:1003530075F00A846004F6081B0AE5F0F6088FF0CE
:10036300740AA4FFACF08EF0740AA42CFEACF05017
:10037300010C8DF0740AA42CFDE435F0F608DBDEE5
:03038300740722DA
:1003860002023FE86480F8E933E83360110460F064
:10039600ED33EC337009E8FCE9FDEAFEEBFF2204DD
:1003A60060DED3EB9FEA9EE99DE8C2E78CF0C2F7D8
:1003B60095F0400CE8CCF8E9CDF9EACEFAEBCFFBA4
:1003C60012020A85D0F05804700320D5B3E80470F1
:1003D600075002B2D502024992D5EC0460F7E4CC8C
:1003E600C0E0C398F8603B94186008400DD0E0FB6D
:1003F600020221E4FBFAC9FC8028E830E406E4C9DD
:10040600FBE4CAFCE830E305E4C9CACBFCE85407C0
:100416006010F8C3E913F9EA13FAEB13FBEC13FCCB
:10042600D8F130F52FC3E49CFCEF9BFFEE9AFEED6E
:1004360099FDD0E0FBEF4E4D4C701222DB03020219
:1004460046EC2CFCEF33FFEE33FEED33FDED30E7EB
:10045600EB020221EF2BFFEE3AFEED39FDD0E0FB79
:1004660050130BBB0003020249ED13FDEE13FEEF22
:0804760013FFEC13FC0202214C
:10047E00020249EC5D046005E85904700302023F74
:10048E0012020A580460F6EC4860F2EC7004FDFEAD
:10049E00FF22C860DB2481C85009C3986002500651
:1004AE000202469850CAF582E9294B4A7005AB8282
:1004BE0002023575F0007C1A7880C3EF9BEE9AED40
:1004CE0099400DC3EF9BFFEE9AFEED99FDE842F0C9
:1004DE00DC23ACF0D0E0FFD0E0FED0E0FDAB82201C
:1004EE00E7101BEB60BAEC2CFCEF33FFEE33FEEDA6
:1004FE0033FD020221E803F830E705C0F075F00085
:10050E00EF2FFFEE33FEED33FD40B830E7C280AA89
:10051E003F8000004120000042C80000447A0000E5
:10052E00461C400047C35000497424004B18968067
:10053E004CBEBC205A0E1BCA6753C21C749DC5AE5E
:10054E00FB60065407601C232312057CEB543860B5
:10055E00091205681205771200C6ECF8EDF9EEFAED
:10056E00EFCB22EB12057780F1543803241C900553
:10057E001EFE93FC0EEE93FD0EEE930ECE93FF2217
:100B9000020AA5E493A3F8E493A34003F68001F2CC
:100BA00008DFF48029E493A3F85407240CC8C33366
:100BB000C4540F4420C8834004F456800146F6DF35
:100BC000E4800B0102040810204080900D09E47EAF
:100BD000019360BCA3FF543F30E509541FFEE4932A
:100BE000A360010ECF54C025E060A840B8E493A3F1
:100BF000FAE493A3F8E493A3C8C582C8CAC583CA1C
:100C0000F0A3C8C582C8CAC583CADFE9DEE780BED3
:010D0B0000E7
:10058E00BB010689828A83E0225002E722BBFE026B
:09059E00E32289828A83E493229E
:1005A700BB010CE58229F582E5833AF583E0225009
:1005B70006E92582F8E622BBFE06E92582F8E22253
:0D05C700E58229F582E5833AF583E493226D
:1005D400BB010689828A83F0225002F722BBFE0106
:0205E400F32200
:0E05E600C3E49FFFE49EFEE49DFDE49CFC2226
:0C05F400ECF0A3EDF0A3EEF0A3EFF0227A
:10060000FAE6FB0808E6F925F0F618E6CA3AF622FB
:10061000D083D082F8E4937012740193700DA3A379
:1006200093F8740193F5828883E47374029368608D
:06063000EFA3A3A380DF8D
:100C1000EFB40A07740D120C1B740A309811A899CE
:100C2000B8130CC2983098FDA899C298B811F63044
:070C300099FDC299F599221C
:00000001FF
